{
  "contractName": "Wallet",
  "abi": [
    {
      "inputs": [],
      "stateMutability": "nonpayable",
      "type": "constructor"
    },
    {
      "inputs": [
        {
          "internalType": "uint256",
          "name": "amount",
          "type": "uint256"
        }
      ],
      "name": "save",
      "outputs": [],
      "stateMutability": "nonpayable",
      "type": "function"
    },
    {
      "inputs": [
        {
          "internalType": "uint256",
          "name": "amount",
          "type": "uint256"
        },
        {
          "internalType": "address",
          "name": "recipient",
          "type": "address"
        }
      ],
      "name": "spend",
      "outputs": [],
      "stateMutability": "nonpayable",
      "type": "function"
    },
    {
      "inputs": [],
      "name": "balance",
      "outputs": [
        {
          "internalType": "uint256",
          "name": "",
          "type": "uint256"
        }
      ],
      "stateMutability": "view",
      "type": "function"
    }
  ],
  "bytecode": "0x6080604052600180546001600160a01b0319908116736b175474e89094c44da98b954eedeac495271d0f179091556002805490911673c2cb1040220768554cf699b0d863a3cd4324ce3217905534801561005857600080fd5b50600080546001600160a01b031916331790556106fd8061007a6000396000f3fe608060405234801561001057600080fd5b50600436106100415760003560e01c80631b862027146100465780631e9f59db1461005b578063b69ef8a81461006e575b600080fd5b6100596100543660046105b4565b61008c565b005b6100596100693660046105e4565b610201565b610076610435565b6040516100839190610693565b60405180910390f35b6001546040516323b872dd60e01b81526001600160a01b03909116906323b872dd906100c090339030908690600401610632565b602060405180830381600087803b1580156100da57600080fd5b505af11580156100ee573d6000803e3d6000fd5b505050506040513d601f19601f82011682018060405250810190610112919061058d565b5060015460025460405163095ea7b360e01b81526001600160a01b039283169263095ea7b392610149929116908590600401610656565b602060405180830381600087803b15801561016357600080fd5b505af1158015610177573d6000803e3d6000fd5b505050506040513d601f19601f8201168201806040525081019061019b919061058d565b5060025460405163b6b55f2560e01b81526001600160a01b039091169063b6b55f25906101cc908490600401610693565b600060405180830381600087803b1580156101e657600080fd5b505af11580156101fa573d6000803e3d6000fd5b5050505050565b6000546001600160a01b031633146102345760405162461bcd60e51b815260040161022b9061066f565b60405180910390fd5b6002546040516370a0823160e01b81526000916001600160a01b0316906370a082319061026590309060040161061e565b60206040518083038186803b15801561027d57600080fd5b505afa158015610291573d6000803e3d6000fd5b505050506040513d601f19601f820116820180604052508101906102b591906105cc565b600254604051632e1a7d4d60e01b81529192506001600160a01b031690632e1a7d4d906102e6908490600401610693565b600060405180830381600087803b15801561030057600080fd5b505af1158015610314573d6000803e3d6000fd5b505060015460405163a9059cbb60e01b81526001600160a01b03909116925063a9059cbb915061034a9085908790600401610656565b602060405180830381600087803b15801561036457600080fd5b505af1158015610378573d6000803e3d6000fd5b505050506040513d601f19601f8201168201806040525081019061039c919061058d565b506001546040516370a0823160e01b81526000916001600160a01b0316906370a08231906103ce90309060040161061e565b60206040518083038186803b1580156103e657600080fd5b505afa1580156103fa573d6000803e3d6000fd5b505050506040513d601f19601f8201168201806040525081019061041e91906105cc565b9050801561042f5761042f81610557565b50505050565b600080600260009054906101000a90046001600160a01b03166001600160a01b03166377c7b8fc6040518163ffffffff1660e01b815260040160206040518083038186803b15801561048657600080fd5b505afa15801561049a573d6000803e3d6000fd5b505050506040513d601f19601f820116820180604052508101906104be91906105cc565b6002546040516370a0823160e01b81529192506000916001600160a01b03909116906370a08231906104f490309060040161061e565b60206040518083038186803b15801561050c57600080fd5b505afa158015610520573d6000803e3d6000fd5b505050506040513d601f19601f8201168201806040525081019061054491906105cc565b9050610550828261069c565b9250505090565b60015460025460405163095ea7b360e01b81526001600160a01b039283169263095ea7b392610149929116908590600401610656565b60006020828403121561059e578081fd5b815180151581146105ad578182fd5b9392505050565b6000602082840312156105c5578081fd5b5035919050565b6000602082840312156105dd578081fd5b5051919050565b600080604083850312156105f6578081fd5b8235915060208301356001600160a01b0381168114610613578182fd5b809150509250929050565b6001600160a01b0391909116815260200190565b6001600160a01b039384168152919092166020820152604081019190915260600190565b6001600160a01b03929092168252602082015260400190565b6020808252600a908201526937b7363c9030b236b4b760b11b604082015260600190565b90815260200190565b60008160001904831182151516156106c257634e487b7160e01b81526011600452602481fd5b50029056fea264697066735822122011f7b16d49c5aacf5fb14d3980f2f95f8cb218dca59b682679ebbcc1425d156864736f6c63430008000033",
  "immutableReferences": {},
  "source": "// SPDX-License-Identifier: MIT\r\npragma solidity ^0.8.0;\r\n\r\nimport \"@openzeppelin/contracts/token/ERC20/IERC20.sol\";\r\n\r\ninterface IYDAI {\r\n  function deposit(uint _amount) external;\r\n  function withdraw(uint _shares) external;\r\n  function balanceOf(address account) external view returns (uint);\r\n  function getPricePerFullShare() external view returns (uint);\r\n}\r\n\r\ncontract Wallet {\r\n\r\n  address admin;\r\n  IERC20 dai = IERC20(0x6B175474E89094C44Da98b954EedeAC495271d0F);\r\n  IYDAI yDai = IYDAI(0xC2cB1040220768554cf699b0d863A3cd4324ce32);\r\n\r\n  constructor() public {\r\n    admin = msg.sender;\r\n  }\r\n\r\n\r\n  function save(uint amount) external {\r\n    dai.transferFrom(msg.sender, address(this), amount);\r\n    dai.approve(address(yDai), amount);\r\n    yDai.deposit(amount);\r\n  }\r\n\r\n  function spend(uint amount, address recipient) external {\r\n    require(msg.sender ==admin, \"only admin\");\r\n    uint balanceShares = yDai.balanceOf(address(this));\r\n    yDai.withdraw(balanceShares);\r\n    dai.transfer(recipient, amount);\r\n    uint balanceDai = dai.balanceOf(address(this));\r\n    if(balanceDai > 0){\r\n      _save(balanceDai);\r\n    }\r\n  }\r\n\r\n  function _save(uint amount) internal {\r\n    dai.approve(address(yDai), amount);\r\n    yDai.deposit(amount);\r\n  }\r\n\r\n  function balance() external view returns (uint) {\r\n    uint price = yDai.getPricePerFullShare();\r\n    uint balanceShares = yDai.balanceOf(address(this));\r\n    return balanceShares * price;\r\n  }\r\n\r\n\r\n}\r\n",
  "sourcePath": "C:\\Users\\Hp\\Documents\\Projects\\defi-wallet-yearn\\contracts\\Wallet.sol",
  "compiler": {
    "name": "solc",
    "version": "0.8.0+commit.c7dfd78e.Emscripten.clang"
  },
  "schemaVersion": "3.4.3",
  "updatedAt": "2021-12-01T12:41:26.747Z",
  "devdoc": {
    "kind": "dev",
    "methods": {},
    "version": 1
  },
  "userdoc": {
    "kind": "user",
    "methods": {},
    "version": 1
  }
}